:020000040800F2
:100000000000022071C60008C9A90008CFA9000895
:10001000D5A90008DBA90008E1A90008000000003C
:10002000000000000000000000000000DD82000869
:10003000E7A900080000000099820008C9810008B3
:10004000C1C60008C1C60008C1C60008C1C6000874
:10005000C1C60008C1C60008C1C60008C1C6000864
:10006000C1C60008C1C60008C1C60008C1C6000854
:10007000C1C60008C1C60008C1C60008C1C6000844
:10008000C1C60008C1C6000877110008C1C6000833
:10009000C1C60008C1C60008C1C60008C1C6000824
:1000A000C1C60008C1C60008C1C60008C1C6000814
:1000B000F5A90008C1C60008C1C60008C1C60008ED
:1000C000C1C60008C1C60008C1C60008C1C60008F4
:1000D000C1C6000835900008C1C60008C1C60008A6
:1000E000C1C60008C1C60008C1C60008C1C60008D4
:1000F000C1C60008C1C60008C1C60008C1C60008C4
:10010000C1C60008C1C60008C1C60008C1C60008B3
:10011000C1C60008C1C60008C1C60008C1C60008A3
:1001200009AA0008C1C6000849900008C1C6000815
:10013000C1C60008C1C60008C1C60008C1C6000883
:10014000C1C60008C1C60008C1C60008C1C6000873
:10015000C1C60008C1C60008C1C60008C1C6000863
:10016000C1C60008C1C60008C1C60008C1C6000853
:10017000C1C60008C1C60008C1C6000800000000D2
:08018000C1C60008C1C6000859
:1001880010B5054C237833B9044B13B10448AFF3C9
:1001980000800123237010BD000100200000000032
:1001A8004CCA000808B5034B1BB103490348AFF319
:1001B800008008BD00000000040100204CCA0008AF
:1001C80081F0004102E000BF83F0004330B54FEA00
:1001D80041044FEA430594EA050F08BF90EA020F6D
:1001E8001FBF54EA000C55EA020C7FEA645C7FEA00
:1001F800655C00F0E2804FEA5454D4EB5555B8BF23
:100208006D420CDD2C4480EA020281EA030382EA93
:10021800000083EA010180EA020281EA0303362D25
:1002280088BF30BD11F0004F4FEA01314FF4801CF8
:100238004CEA113102D0404261EB410113F0004F0A
:100248004FEA03334CEA133302D0524263EB4303C1
:1002580094EA050F00F0A780A4F10104D5F1200E5F
:100268000DDB02FA0EFC22FA05F2801841F10001BA
:1002780003FA0EF2801843FA05F359410EE0A5F18E
:1002880020050EF1200E012A03FA0EFC28BF4CF0BF
:10029800020C43FA05F3C01851EBE37101F0004575
:1002A80007D54FF0000EDCF1000C7EEB00006EEB82
:1002B8000101B1F5801F1BD3B1F5001F0CD349080C
:1002C8005FEA30004FEA3C0C04F101044FEA445263
:1002D80012F5800F80F09A80BCF1004F08BF5FEAEA
:1002E800500C50F1000041EB045141EA050130BDCA
:1002F8005FEA4C0C404141EB0101013C28BFB1F5DC
:10030800801FE9D291F0000F04BF01460020B1FA26
:1003180081F308BF2033A3F10B03B3F120020CDAF9
:100328000C3208DD02F1140CC2F10C0201FA0CF0D7
:1003380021FA02F10CE002F11402D8BFC2F1200C3C
:1003480001FA02F120FA0CFCDCBF41EA0C019040F2
:10035800E41AA2BF01EB0451294330BD6FEA04043B
:100368001F3C1CDA0C340EDC04F11404C4F1200226
:1003780020FA04F001FA02F340EA030021FA04F338
:1003880045EA030130BDC4F10C04C4F1200220FA8F
:1003980002F001FA04F340EA0300294630BD21FACD
:1003A80004F0294630BD94F0000F83F4801306BF93
:1003B80081F480110134013D4EE77FEA645C18BF87
:1003C8007FEA655C29D094EA050F08BF90EA020F1E
:1003D80005D054EA000C04BF1946104630BD91EA16
:1003E800030F1EBF0021002030BD5FEA545C05D119
:1003F8004000494128BF41F0004130BD14F5800458
:100408003CBF01F5801130BD01F0004545F0FE41CB
:1004180041F470014FF0000030BD7FEA645C1ABF00
:10042800194610467FEA655C1CBF0B46024650EA37
:10043800013406BF52EA033591EA030F41F4002163
:1004480030BD00BF90F0000F04BF0021704730B5E9
:100458004FF4806404F132044FF000054FF00001BE
:1004680050E700BF90F0000F04BF0021704730B57F
:100478004FF4806404F1320410F0004548BF404254
:100488004FF000013EE700BF42004FEAE2014FEAA9
:1004980031014FEA02701FBF12F07F4393F07F4F84
:1004A80081F06051704732F07F4208BF704793F087
:1004B8007F4F04BF41F40021704730B54FF460749A
:1004C80001F0004521F000411CE700BF50EA01029D
:1004D80008BF704730B54FF000050AE050EA010246
:1004E80008BF704730B511F0004502D5404261EBB6
:1004F80041014FF4806404F132045FEA915C3FF4F7
:10050800D8AE4FF003025FEADC0C18BF03325FEA93
:10051800DC0C18BF033202EBDC02C2F1200300FA44
:1005280003FC20FA02F001FA03FE40EA0E0021FA69
:1005380002F11444BDE600BF70B54FF0FF0C4CF457
:10054800E06C1CEA11541DBF1CEA135594EA0C0F09
:1005580095EA0C0F00F0DEF82C4481EA030621EA44
:100568004C5123EA4C5350EA013518BF52EA03357F
:1005780041F4801143F4801338D0A0FB02CE4FF031
:100588000005E1FB02E506F00042E0FB03E54FF061
:100598000006E1FB03569CF0000F18BF4EF0010E59
:1005A800A4F1FF04B6F5007F64F5407404D25FEA55
:1005B8004E0E6D4146EB060642EAC62141EA555108
:1005C8004FEAC52040EA5E504FEACE2EB4F1FD0C4A
:1005D80088BFBCF5E06F1ED8BEF1004F08BF5FEAC8
:1005E800500E50F1000041EB045170BD06F000467A
:1005F80046EA010140EA020081EA0301B4EB5C0427
:10060800C2BFD4EB0C0541EA045170BD41F480111E
:100618004FF0000E013C00F3AB8014F1360FDEBF43
:10062800002001F0004170BDC4F10004203C35DA1F
:100638000C341BDC04F11404C4F1200500FA05F3A2
:1006480020FA04F001FA05F240EA020001F0004243
:1006580021F0004110EBD37021FA04F642EB0601B9
:100668005EEA430E08BF20EAD37070BDC4F10C04E3
:10067800C4F1200500FA04F320FA05F001FA04F2A7
:1006880040EA020001F0004110EBD37041F1000193
:100698005EEA430E08BF20EAD37070BDC4F120059E
:1006A80000FA05F24EEA020E20FA04F301FA05F206
:1006B80043EA020321FA04F001F0004121FA04F2AE
:1006C80020EA020000EBD3705EEA430E08BF20EA7E
:1006D800D37070BD94F0000F0FD101F000464000B8
:1006E80041EB010111F4801F08BF013CF7D041EA3A
:1006F800060195F0000F18BF704703F0004652003E
:1007080043EB030313F4801F08BF013DF7D043EA0E
:100718000603704794EA0C0F0CEA135518BF95EAC4
:100728000C0F0CD050EA410618BF52EA4306D1D14B
:1007380081EA030101F000414FF0000070BD50EA6A
:10074800410606BF1046194652EA430619D094EAF4
:100758000C0F02D150EA013613D195EA0C0F05D1DE
:1007680052EA03361CBF104619460AD181EA030132
:1007780001F0004141F0FE4141F470014FF00000EA
:1007880070BD41F0FE4141F4780170BD70B54FF085
:10079800FF0C4CF4E06C1CEA11541DBF1CEA135505
:1007A80094EA0C0F95EA0C0F00F0A7F8A4EB0504E7
:1007B80081EA030E52EA03354FEA013100F08880DE
:1007C8004FEA03334FF0805545EA131343EA1263A7
:1007D8004FEA022245EA111545EA10654FEA00265C
:1007E8000EF000419D4208BF964244F1FD0404F515
:1007F800407402D25B084FEA3202B61A65EB030571
:100808005B084FEA32024FF480104FF4002CB6EB2D
:10081800020E75EB030E22BFB61A754640EA0C00AD
:100828005B084FEA3202B6EB020E75EB030E22BFED
:10083800B61A754640EA5C005B084FEA3202B6EB2E
:10084800020E75EB030E22BFB61A754640EA9C00ED
:100858005B084FEA3202B6EB020E75EB030E22BFBD
:10086800B61A754640EADC0055EA060E18D04FEA7B
:10087800051545EA16754FEA06164FEAC30343EA1B
:1008880052734FEAC2025FEA1C1CC0D111F4801FE8
:100898000BD141EA00014FF000004FF0004CB6E7E1
:1008A80011F4801F04BF01430020B4F1FD0C88BF80
:1008B800BCF5E06F3FF6AFAEB5EB030C04BFB6EB8B
:1008C800020C5FEA500C50F1000041EB045170BD7E
:1008D8000EF0004E4EEA113114EB5C04C2BFD4EBAB
:1008E8000C0541EA045170BD41F480114FF0000E2F
:1008F800013C90E645EA060E8DE60CEA135594EAAB
:100908000C0F08BF95EA0C0F3FF43BAF94EA0C0FAD
:100918000AD150EA01347FF434AF95EA0C0F7FF422
:1009280025AF104619462CE795EA0C0F06D152EA76
:1009380003353FF4FDAE1046194622E750EA41065A
:1009480018BF52EA43067FF4C5AE50EA41047FF46B
:100958000DAF52EA43057FF4EBAE12E74FF0FF3CD0
:1009680006E000BF4FF0010C02E000BF4FF0010CA1
:100978004DF804CD4FEA410C7FEA6C5C4FEA430C1A
:1009880018BF7FEA6C5C1BD001B050EA410C0CBF69
:1009980052EA430C91EA030F02BF90EA020F0020CB
:1009A800704710F1000F91EA030F58BF994208BF32
:1009B80090422CBFD8176FEAE37040F001007047EF
:1009C8004FEA410C7FEA6C5C02D150EA013C07D146
:1009D8004FEA430C7FEA6C5CD6D152EA033CD3D091
:1009E8005DF8040B704700BF8446104662468C468B
:1009F8001946634600E000BF01B5FFF7B7FF0028BE
:100A080048BF10F1000F01BD4DF808EDFFF7F4FFE6
:100A18000CBF012000205DF808FB00BF4DF808ED71
:100A2800FFF7EAFF34BF012000205DF808FB00BF94
:100A38004DF808EDFFF7E0FF94BF012000205DF8B6
:100A480008FB00BF4DF808EDFFF7CEFF94BF01206B
:100A580000205DF808FB00BF4DF808EDFFF7C4FF64
:100A680034BF012000205DF808FB00BF4FEA410CAD
:100A78007FEA6C5C02D150EA013C0AD14FEA430C90
:100A88007FEA6C5C02D152EA033C02D14FF00000CD
:100A980070474FF0010070474A0011D212F500125A
:100AA80011D20DD56FF47873B3EB62520ED44FEABE
:100AB800C12343F0004343EA505323FA02F070473E
:100AC8004FF00000704750EA013002D14FF0FF307C
:100AD80070474FF00000704753B94AB9002908BF62
:100AE80000281CBF4FF0FF314FF0FF3000F06EB907
:100AF800ADF1080C6DE904CE00F006F8DDF804E06D
:100B0800DDE9022304B070472DE9F047089D04464B
:100B18008C46002B40F083808A42174647D9B2FAA8
:100B280082F242B1C2F1200024FA00F091409740CD
:100B380040EA010C94404FEA1748230CBCFBF8F636
:100B48001FFA87FE08FB16C143EA014306FB0EF1B4
:100B5800994209D9FB1806F1FF3080F019819942B2
:100B680040F21681023E3B445B1AA4B2B3FBF8F094
:100B780008FB103344EA034400FB0EFEA64509D9DE
:100B88003C1900F1FF3380F00581A64540F202814F
:100B980002383C4440EA0640A4EB0E0400261DB18E
:100BA800D4400023C5E900433146BDE8F08702B9C7
:100BB800FFDEB2FA82F2002A50D1CB1B4FEA174E61
:100BC8001FFA87F80126B3FBFEFC210C0EFB1C3331
:100BD80041EA034108FB0CF38B4207D979180CF161
:100BE800FF3002D28B4200F2E9808446C91AA3B2D0
:100BF800B1FBFEF00EFB101143EA014408FB00F8BC
:100C0800A04507D93C1900F1FF3302D2A04500F2F4
:100C1800D9801846A4EB080440EA0C40BFE78B4291
:100C280009D9002D00F0B1800026C5E90001304641
:100C38003146BDE8F087B3FA83F6002E4AD18B42DD
:100C480002D3824200F2B880841A61EB03010120CA
:100C58008C46002DA8D0C5E9004CA5E7C2F12003B9
:100C680020FA03F6974001FA02F04FEA174ED940EE
:100C78003043030CB1FBFEF61FFA87F80EFB161182
:100C880043EA014306FB08F1994204FA02F409D940
:100C9800FB1806F1FF3C80F08D80994240F28A8073
:100CA800023E3B445B1A81B2B3FBFEF00EFB1033ED
:100CB80041EA034100FB08F38B4207D9791800F198
:100CC800FF3C73D28B4271D902383944CB1A40EABF
:100CD800064678E7C6F1200C03FA06F422FA0CF36C
:100CE8001C4320FA0CF701FA06F34FEA144E21FAD6
:100CF8000CF11F433B0CB1FBFEF91FFA84F80EFB05
:100D0800191143EA014109FB08FA8A4502FA06F279
:100D180000FA06F308D9611809F1FF3048D28A456C
:100D280046D9A9F102092144A1EB0A01BFB2B1FBDE
:100D3800FEF00EFB101147EA014700FB08F8B84522
:100D480007D9E71900F1FF312ED2B8452CD902385E
:100D5800274440EA0940A7EB0807A0FB02894F4552
:100D6800C64649461AD317D05DB1B3EB0E0267EBFE
:100D7800010707FA0CFCF2404CEA0202F740C5E909
:100D8800002700263146BDE8F0872E4628460BE7A7
:100D98000646E9E61846FDE64345E5D2B8EB020EFD
:100DA80069EB04010138DFE70846D2E760468DE7C2
:100DB8008146B9E7664675E730464AE7ACF1020C6A
:100DC800394413E702383C4424E700BF704700BFAA
:100DD80080B483B000AF78607B689B6803F04053B1
:100DE800002B0CBF01230023DBB218460C37BD468D
:100DF8005DF8047B704780B483B000AF78603960D9
:100E08007B68DB6A23F470023B681A437B68DA620A
:100E180000BF0C37BD465DF8047B704780B483B0D3
:100E280000AF786039607B689B6823F440723B6848
:100E38001A437B689A6000BF0C37BD465DF8047B97
:100E4800704780B483B000AF78607B689B6843F0DC
:100E580001027B689A6000BF0C37BD465DF8047BD1
:100E6800704780B483B000AF78607B689B6823F0DC
:100E780001027B689A6000BF0C37BD465DF8047BB1
:100E8800704780B483B000AF78607B689B6803F0DC
:100E98000103012B0CBF01230023DBB218460C37DA
:100EA800BD465DF8047B704780B483B000AF7860BE
:100EB8007B689B6843F080427B689A6000BF0C3770
:100EC800BD465DF8047B704780B483B000AF78609E
:100ED8007B68DB6C9BB218460C37BD465DF8047B1B
:100EE800704780B483B000AF78607B681B6803F0FC
:100EF8000203022B0CBF01230023DBB218460C3778
:100F0800BD465DF8047B704780B483B000AF78605D
:100F18007B681B6803F02003202B0CBF01230023F0
:100F2800DBB218460C37BD465DF8047B704780B4C9
:100F380083B000AF78607B686FF002021A6000BF70
:100F48000C37BD465DF8047B704780B483B000AFB2
:100F580078607B686FF020021A6000BF0C37BD46CE
:100F68005DF8047B704780B483B000AF78607B681D
:100F78005B6843F020027B685A6000BF0C37BD46AF
:100F88005DF8047B704780B483B000AF78607B68FD
:100F98005B6843F080027B685A6000BF0C37BD462F
:100FA8005DF8047B704780B483B000AF78607B68DD
:100FB8005B6823F020027B685A6000BF0C37BD468F
:100FC8005DF8047B704780B483B000AF78607B68BD
:100FD8005B6823F080627B685A6000BF0C37BD46AF
:100FE8005DF8047B704780B483B000AF78607B689D
:100FF8005B6823F080027B685A6000BF0C37BD46EF
:101008005DF8047B704780B483B000AF78607B687C
:101018005B6823F040027B685A6000BF0C37BD460E
:101028005DF8047B704780B483B000AF78607B685C
:101038005B6803F08063B3F1806F0CBF012300236A
:10104800DBB218460C37BD465DF8047B704780B4A8
:1010580083B000AF78607B685B6803F04003402B87
:101068000CBF01230023DBB218460C37BD465DF8E0
:10107800047B704780B584B000AF78600123FB81A2
:101088007B681B691846FFF7A3FE0346002B2FD089
:101098007B68DB79DBB2022B11D07B68DB79DBB2B2
:1010A800042B0CD07B68DB79DBB2082B07D07B687C
:1010B8001B691846FFF715FF0346012B18D17868FE
:1010C80000F034F80346002B12D17B68DB79DBB2E1
:1010D800082B03D17B680122DA7102E07B682022A9
:1010E800DA717B681B691846FFF7DEFE0023FB8177
:1010F800FB8918461037BD4680BD80B485B000AF67
:10110800F860B9607A603B6000BF1437BD465DF88F
:10111800047B704780B485B000AFF860B9607A602E
:1011280000BF1437BD465DF8047B704780B582B0B8
:1011380000AF78607B681B691846FFF7E5FE034639
:10114800DBB2012B07D17B681B691846FFF7FDFE50
:101158007B681022DA717B68DB79DBB2102B0CBF5D
:1011680001230023DBB218460837BD4680BD80B492
:1011780000AF00BFBD465DF8047B704780B483B004
:1011880000AF78600B46FB7000BF0C37BD465DF8BA
:10119800047B704790B589B002AFF86008461146E5
:1011A8001A4603467B810B463B811346FB8000238E
:1011B8007B61FB681B693D4A934201D13C4B7B61D3
:1011C8007B69002B6CD0FB681A697B691A617B69A3
:1011D80000225A71FB88012B62D03B89002B48D032
:1011E8007B69DB79DBB2082B43D0FB68DA687B6963
:1011F800DA60FB681A887B691A80FB685A697B6920
:101208005A61FB681A797B691A71FB689A787B695D
:101218009A707B691B69B96A1846FFF7ECFD7B89F0
:10122800012B22D07B89042B17D17B691B694FF4D2
:1012380040711846FFF7F2FD7B6918697B695969A7
:101248007B691B791C467B69DA687B691B8800937C
:1012580013462246FFF751FF07E07B89022B04D192
:101268007B691B691846FFF77EFE7B690822DA71E5
:1012780016E03B89002B13D17B691B7ADBB2082B64
:101288000ED0FB68DA787B69DA707B89022B04D18F
:101298007B691B691846FFF776FE7B6908221A727C
:1012A8007B6918461C37BD4690BD00BF0020014031
:1012B8001C0B002080B582B000AF78607B681B698A
:1012C8001846FFF7DEFD0346002B04D17B681B6937
:1012D8001846FFF7B6FD00BF0837BD4680BD90B57C
:1012E80087B000AFF8600B467A607B810123FB82F0
:1012F800FB681B69002B72D07B89012B05D1F8682C
:10130800FFF7B8FE0346FB8269E07B89042B32D1E4
:10131800FB681B691846FFF75BFD0346002B5ED090
:10132800FB680122DA71FB681B691846FFF7BCFDF0
:1013380000BFFB681B691846FFF7D3FD0346002B67
:10134800F7D0FB681969FB689B7803F10043013B00
:101358005B007A68D4180846FFF7B6FD0346238079
:10136800FB681B691846FFF7E2FDFB680822DA7183
:101378000023FB8233E07B89022B30D1FB68DB79C9
:10138800DBB2202B0CD0FB681B691846FFF7A9FDC0
:101398000346012B04D0FB68DB79DBB2102B1ED18E
:1013A800FB681B691846FFF7C2FDF868FFF7BEFE29
:1013B8000346002B01D10023FB82FB680822DA7167
:1013C800FB681969FB689B7803F10043013B5B00EC
:1013D8007A68D4180846FFF777FD03462380FB8A0E
:1013E80018461C37BD4690BD80B582B000AF786006
:1013F8000B467B8013463B807B681B691846FFF7CA
:1014080040FD0346002B04D07B681B691846FFF794
:1014180028FD7B681B691846FFF719FE0346002B59
:1014280004D07B681B691846FFF7EDFD7B681B69D4
:101438001846FFF7F8FD0346002B04D07B681B69AC
:101448001846FFF7C0FD3B88002B35D07B6800228B
:10145800DA607B6800221A807B6800225A617B6808
:1014680000221A717B6800229A707B681A697B686F
:101478009B7819461046FFF7BEFC7B88012B26D0C7
:101488007B88022B05D17B681B691846FFF78BFD0B
:101498001DE07B88042B1AD17B6818697B68596921
:1014A8007B681B791A46FFF735FE7B681B690021AC
:1014B8001846FFF7B3FC0AE07B680022DA707B88E5
:1014C800022B04D17B681B691846FFF78CFD00BF0F
:1014D8000837BD4680BD80B485B000AF78603960FC
:1014E8000023FB7397F90F3018461437BD465DF893
:1014F800047B704780B584B000AF78603960002302
:10150800FB727B68002B05D1374800F0A9FB4FF030
:10151800FF3365E03B68002B05D1344800F0A0FBA1
:101528004FF0FF335CE0324BD3E900014FF000028B
:101538004FF04043FFF768FA0346002B06D03B689C
:10154800D3E900232A49C1E9002305E0284BD3E960
:1015580000233968C1E90023254BD3E900014FF086
:101568000002244BFFF750FA0346002B02D0224812
:1015780000F076FB7B685B681B68204A13607B6819
:101588005B685B681E4A13607B685B689B681D4AE2
:1015980013607B685B68DB681B4A13601B4B002287
:1015A8001A6000F0CDFF0023FB600023FB6007E01A
:1015B800174AFB68174942F82310FB680133FB60A0
:1015C800FB68012BF4D900F005FC0346FB7297F980
:1015D8000B30002B02D1104B01221A7097F90B30F7
:1015E80018461037BD4680BD68CA00088CCA000876
:1015F800080000200000F0BFB8CA000894010020CD
:10160800980100209C010020A0010020A4010020D6
:101618001C010020B12500089301002080B586B088
:1016280000AF78600023FB7500233B610023FB7348
:101638002A4B1B78DBB2002B0CBF01230023DBB243
:10164800BB73274B02221A707B68002B0BD1234BEC
:101658001B78DBB2002B06D1224B1B78DBB2002BA8
:1016680001D1012300E00023FB7316E00A2006F0F5
:10167800B7FC3B6903F51C5310333B617B68B3F13E
:10168800FF3F05D03A697B689A4201D9012300E0FF
:101698000023FB73002000F0EBFB104B1B78DBB240
:1016A800002B07D10F4B1B78DBB2002B02D1FB7B41
:1016B800002BDBD00A4B03221A70FB7B002B01D0D6
:1016C8009C23FB75BB7B002B01D001F067F897F9D1
:1016D800173018461837BD4680BD00BF910100205D
:1016E800930100209201002080B586B000AF034628
:1016F80087ED000BFB810023FB750123BB754FF0C1
:1017080000024FF00003D7E90001FFF787F903460D
:10171800002B05D02E4800F0A3FA4FF0FF3353E01A
:10172800FB89FF2B08D9FB89FF221946294800F0BD
:1017380097FA4FF0FF3347E0274B1B78DBB2032BB8
:1017480004D0254B1B78DBB2012B02D1224B04229B
:101758001A70FB89012B15D8FB89204A52F82330CF
:10176800002B0FD001F0DEFB03467B757B7D022B3F
:1017780008D1FB89194A52F82330FA89104698474C
:101788000346BB75FB897B82FB89184697ED000BE6
:1017980000F082FABB7D002B06D07B8A184601F048
:1017A80099FB0346FB7503E07B8A184601F0F5FBBD
:1017B80097F91730002B05D097F9173019460848C4
:1017C80000F04EFA97F9173018461837BD4680BD15
:1017D80024CB000868CB0008930100201C010020DE
:1017E800A8CB000880B582B000AF0023FB710020B1
:1017F80000F03EFB0346FB7197F90730184608379F
:10180800BD4680BD80B582B000AF0023FB710B4B95
:1018180006221A7000F0CAFB0346FB710822002159
:1018280007480BF007F900F03FFF044B00221A703D
:1018380097F9073018460837BD4680BD9301002048
:101848001C01002080B400AF034B1B78DBB21846A4
:10185800BD465DF8047B70479201002080B400AF5C
:10186800034B1B78DBB21846BD465DF8047B704716
:10187800A801002080B58CB002AF78607B68002298
:101888001A727B6801225A600023FB6100233B73B4
:1018980000237B61164BBB610023FB7201233B8154
:1018A8000123FB840423BB8400233B620123BB7216
:1018B800BA8CF98C07F108003B6A009313460122A1
:1018C800FFF768FC02467B68DA607B68DB681846CD
:1018D800FFF7F0FC7B68DB6801211846FFF74EFC38
:1018E8007B6801221A7200BF2837BD4680BD00BF41
:1018F8000020014090B583B000AF0423FB80144B57
:10190800DB683A1DF9881846FFF7E9FC114B1B887C
:10191800BA8802FB03F3104A13600F4B1B680F4A87
:1019280013600F4B9A6A01329A629B6A1846FEF757
:1019380089FD0B4BD3E90C23094CFEF7FDFD02464C
:101948000B46C4E9082300BF0C37BD4690BD00BF55
:10195800340B002000000020440B0020480B00201E
:10196800280100200000000080B500AF20494FF09A
:101978000002204BC1E90E231D491BA3D3E9002314
:10198800C1E90C231A4B1C4A9A60194B1B4ADA60AE
:10199800174B1B4A1A61164B1A4A5A61144B1A4ABA
:1019A8005A60194B194A1A60184B194A1A60174B92
:1019B800174A5A600E4A0E4B5B6818329A600C4AF6
:1019C8000B4B5B6808325A60094A094B5B68203246
:1019D800DA60104B00225A600E4B00221A700D4834
:1019E800FFF748FF00BF80BD2D431CEBE2361A3FCE
:1019F800280100200000F0BF4F816106472D0B45EC
:101A080065937E26A39C6005700100208401002058
:101A1800D4F20008340B002080B582B000AF0E4B22
:101A28001B78002B13D10C4B01221A700A4B5B68F0
:101A3800012B0CD1084B1B7A002B08D00123FB800B
:101A4800054BDB68F98801221846FFF7CDFC00BF7B
:101A58000837BD4680BD00BF340B002080B582B07A
:101A680000AF4FF000024FF00003C7E90023164B08
:101A78001B785A1CD1B2144A1170002B09D0134B91
:101A880001221A60104B1B78013BDAB20E4B1A7018
:101A980016E062B600BF0E4B1B68D3E90823C7E9FE
:101AA8000023FFF727FF97ED000B0020FFF71CFE30
:101AB80072B600BF044B1B78013BDAB2024B1A70B6
:101AC8000837BD4680BD00BF900100208C01002072
:101AD800D0F2000880B586B000AF786039605B4B03
:101AE8007B614FF083433B610023FB73584B00221B
:101AF8001A70584B00221A7001DF09F02FFD07F009
:101B080075FE06F085FA07F0E9FE08F02FFC08F0EC
:101B180017FB08F085FE08F003FF08F0B7F94E4BF5
:101B28001B6800221A6000210020FFF7D4FC03463E
:101B3800FB7397F90F30002B02D097F90F3080E034
:101B4800FFF712FF72B600BF62B600BF424B1B68B8
:101B58005A68414B1B68383319461046FFF7CAFCD0
:101B68000346FB7397F90F30002B0DD14FF0FF3070
:101B7800FFF754FDFFF766FE0346002B04D0364BF3
:101B88001B68012283F8402072B600BF97ED050A52
:101B980006F026FBFFF762FE0346002B0CD1FFF789
:101BA80051FE0346002B07D12B4B1B6893F840309E
:101BB800002B01D1012300E00023DAB2254B1A7073
:101BC80062B600BF62B600BF2FE0FFF70BFE034608
:101BD800FB73FFF743FE0346002B0AD1FFF732FEE3
:101BE8000346002B05D11C4B1B6893F84030002B93
:101BF80001D0012300E00023DAB2154B1A70144B10
:101C08001B78DBB2002B0CBF01230023DBB21A4682
:101C1800104B1A700E4B1B78DBB2002B05D00F4B04
:101C28001B680E4A23F0010313600A4B1B78DBB2D2
:101C3800002BCAD1FFF7F0FEFFF7E4FD72B600BF34
:101C4800002318461837BD4680BD00BF17B7D138E6
:101C58004D0B00204C0B0020D0F2000810E000E0F3
:101C68000FB480B400AF00BFBD465DF8047B04B07C
:101C7800704780B485B000AFF860B9607A60FB68DF
:101C8800BA681A60FB6804337A681A6000BF1437B0
:101C9800BD465DF8047B7047F0B58BB000AF87EDAB
:101CA800020B0346FB80FB88002B77D14FF0000224
:101CB800414BD7E90201FEF73FFC02460B46C7E954
:101CC80006239FED391B97ED060B0AF0F7FC53EC42
:101CD800102B10461946FEF7DFFE03467B610023F2
:101CE8007B6233A3D3E90023D7E90601FEF7B4FEEC
:101CF8000346002B0ED02EA3D3E90023D7E9060113
:101D0800FEF744FD02460B4610461946FEF7C4FE90
:101D180003467B627A6A79692848FFF7AAFF284B4D
:101D2800D3E900014FF00002264BFEF76DFE034693
:101D3800002B2ED1224BD3E900014FF000024FF0C7
:101D48004043FEF761FE0346002B22D11C4BD3E92A
:101D58000001D7E90223FEF737FA02460B4614467C
:101D68001D464FF00002184BD7E90201FEF7E4FBCD
:101D780002460B4601210E4620462946FEF74EFE36
:101D88000346002B01D100231E46F3B21A460F4B1F
:101D98001A700F49D7E90223C1E9002300BF2C3785
:101DA800BD46F0BDAFF30080000000000000F04128
:101DB8000000E0FFFFFFEF4100408F40B801002026
:101DC800080000200000F0BF0000B03CA80100207F
:101DD800C001002080B584B000AF0023BB600023A1
:101DE8007B600023FB731F494FF000024FF0000394
:101DF800C1E900233A1D07F108031146184606F009
:101E0800C1F8BB687A681146184604F0E1F9034640
:101E1800FB7397F90F30002B05D01348FFF720FF0D
:101E280097F90F301AE03A1D07F1080311461846D2
:101E380006F0BFF8BB687A681146184600F04EFFF6
:101E48000346FB7397F90F30002B05D097F90F3035
:101E580019460648FFF704FF97F90F301846103760
:101E6800BD4680BDB001002024CD00084CCD00083F
:101E780080B584B000AF0346FB710023FB730023D9
:101E8800BB73002006F0ACF800237B7304F06EFBF4
:101E98000346FB7397F90F30002B0DD097F90F30DD
:101EA80013F1020F08D097F90F3019463C48FFF795
:101EB800D7FE0123BB730BE07B7B002B04D197F982
:101EC8000F3013F1020F01D0012300E000237B73D0
:101ED800BB7B002B21D100F033FF0346FB7397F93E
:101EE8000F30002B0DD097F90F3013F1020F08D0E7
:101EF80097F90F3019462B48FFF7B2FE0123BB7341
:101F08000BE07B7B002B04D197F90F3013F1020F04
:101F180001D0012300E000237B73BB7B002B21D180
:101F280004F0AEFA0346FB7397F90F30002B0DD07F
:101F380097F90F3013F1020F08D097F90F301946AF
:101F48001948FFF78DFE0123BB730BE07B7B002B49
:101F580004D197F90F3013F1020F01D0012300E0EB
:101F680000237B73FB79002B0DD0002006F038F896
:101F7800BB7B002B02D17B7B002B01D1012300E02E
:101F88000023BB7301E00123BB73BB7B002B3FF431
:101F98007BAF97F90F3018461037BD4680BD00BF9C
:101FA80074CD0008ACCD0008DCCD000880B582B047
:101FB80000AF0023BB70394B1B78DBB2002B02D07B
:101FC800002000F0DBFF00F0ADFF0346FB700023AC
:101FD8007B600EE00A2006F003F87B6803F51C53CB
:101FE80010337B600120FFF743FF00F09BFF03469F
:101FF800FB707B682A4A934202D8FB78002BE9D110
:1020080000F09CFF0346BB7097F90230002B05D007
:1020180097F9023019462348FFF722FE04F020FC06
:102028000346BB7097F90230002B05D097F90230B0
:1020380019461D48FFF714FE1C4B00221A701C4B52
:1020480000221A701B4B00221A601B4B00221A60D8
:102058001A4B00221A601A4B00221A60194B0022F0
:102068001A6019494FF000024FF04043C1E90023BC
:102078000A4B00221A700822002114480AF0DAFCE0
:1020880013494FF000024FF00003C1E9002397F90C
:10209800023018460837BD4680BD00BFA8010020A1
:1020A800FF2C310114CE000830CE00089101002029
:1020B8009201002094010020980100209C0100203A
:1020C800A0010020A401002008000020B801002081
:1020D800C001002080B586B000AF614B1B687B61F2
:1020E8007B69002B00F0B8805E4B1B78DBB2002BBD
:1020F80004D15B4B1B68002B00F0AE805A4B1B7859
:10210800DBB2022B40F0A880584B1B78002B40F024
:10211800A3807B69D3E90023C7E90223544B1B78CA
:10212800002B00F08A80534B1B78DBB2002B04D0C5
:10213800504B1B78DBB2022B01D1012300E00023B6
:10214800FB714C4B1B78DBB2012B04D0494B1B783D
:10215800DBB2022B01D1012300E00023BB71FB7924
:10216800002B33D0444BD3E90023D7E90201FEF713
:1021780069FC0346002B0AD0404BD3E900013E4BD3
:10218800D3E90023FEF74AFC0346002B14D13A4B4F
:10219800D3E90023D7E90201FEF75EFC0346002BD2
:1021A80014D0364BD3E90001334BD3E90023FEF7B3
:1021B8002BFC0346002B09D0314B1B68002B02D1A6
:1021C800304B01221A70294B01221A70BB79002B5F
:1021D80033D0294BD3E90023D7E90201FEF71EFCCF
:1021E8000346002B0AD0254BD3E90001224BD3E943
:1021F8000023FEF727FC0346002B14D11E4BD3E91E
:102208000023D7E90201FEF7FFFB0346002B14D099
:102218001A4BD3E90001184BD3E90023FEF71CFC45
:102228000346002B09D0164B1B68002B02D1154B17
:1022380001221A700D4B01221A700C4B1B78002BCF
:102248000CBF01230023DBB21A46094B1A700B4955
:10225800D7E90223C1E9002300BF1837BD4680BD76
:10226800CC010020D0010020EC010020FB0100205F
:10227800F8010020E8010020D8010020F00100202A
:10228800E4010020FA01002080B582B000AF0023ED
:10229800FB719E4B1B78DBB2002B18D19C4B0022A4
:1022A8001A709C4B00221A709B4B1B78DBB2002BD8
:1022B8002DD0964B02221A70974B00221A70974B1A
:1022C8001B78DBB2002B22D10123FB711FE0924B5C
:1022D80000221A708E4B1B78DBB2002B09D0904B72
:1022E80000221A70894B00221A70894B00221A703A
:1022F8000DE08A4B1B78DBB2002B02D10123FB7166
:1023080005E0844B1B78FB71824B00221A707F4BCF
:102318001B78DBB2042B00F2D78001A252F823F01D
:102328003D23000877240008572300082B240008C1
:10233800B5230008784B1B78DBB2002B00F0D8805F
:10234800724B02221A70744B00221A70D0E0FB798B
:10235800002B00F0CF80734B1B68002B0DDD6F4BFB
:102368001B78DBB2012B08D16E4B1B681A466E4BEB
:102378001A60664B03221A70BCE06C4B1B68002B7A
:102388000AD0674B01221A70684B1B68664A1360B3
:102398005E4B04221A70ADE06548FFF761FC604BA4
:1023A80000221A70594B00221A70A3E05E4B1B687A
:1023B800002B04D05C4B1B68013B5B4A13605A4BF3
:1023C8001B68002B40F098805A4B1B78DBB2012B1E
:1023D80006D1534B00221A704C4B00221A708BE026
:1023E800554B1B68002B0AD04D4B00221A70524BDC
:1023F8001B684D4A1360454B01221A707CE0FB793B
:10240800002B07D0494B1B68474A13603F4B0422F7
:102418001A7071E0424B00221A703C4B02221A706B
:102428006AE0414B1B68002B04D03F4B1B68013B03
:102438003D4A13603C4B1B68002B5FD13B4B1B682C
:10244800002B0AD0364B01221A70384B1B68364ACB
:1024580013602E4B04221A7050E03548FFF700FC39
:102468002F4B00221A70294B00221A7046E02E4B7F
:102478001B68002B04D02C4B1B68013B2A4A1360B5
:10248800294B1B68002B3BD1FB79002B18D0274B1D
:102498001B68002B0AD0224B01221A70234B1B68A1
:1024A800214A1360194B04221A7029E02048FFF7CB
:1024B800D7FB1B4B00221A70144B00221A701FE026
:1024C800124B02221A701BE0104B1B78DBB2194624
:1024D8001A48FFF7C5FB124B00221A700D4B002259
:1024E8001A700B4B00221A70084B00221A7008E071
:1024F80000BF06E000BF04E000BF02E000BF00E04C
:1025080000BF00BF0837BD4680BD00BFEC010020FA
:10251800E9010020FB01002014000020EA0100204E
:10252800FA010020E4010020FC0100201000002036
:1025380054CE0008EB010020E00100207CCE00080A
:1025480080B400AF10494FF000024FF00003C1E91A
:1025580000230E4B00221A700D4B1B78DAB20D4B7C
:102568001A700D4B00221A700C4B00221A700C4B7B
:1025780000221A600B4B00221A7000231846BD4631
:102588005DF8047B704700BFF0010020F8010020CF
:10259800EA010020F9010020FA010020FB010020D7
:1025A800FC010020EC01002080B584B000AF034698
:1025B800FB80FB88002B3FD1314B1B78DAB2314BC3
:1025C8001B789A4214BF01230023DBB2FB732C4B08
:1025D8001B78DAB22B4B1A70FB7B002B0BD02A4BE3
:1025E80000221A70294B00221A70294B00221A6007
:1025F800284B00221A70224B1B78DBB2012B1BD10F
:10260800244B1B78DBB2002B04D1234B1B78DBB2A5
:10261800002B08D11F4B1B78DBB2012B0CD11C4BB4
:102628001B68012B08D11A4B00221A601A4B002292
:102638001A70184B02221A70114B1B78DBB2012B4F
:1026480007D1164B1B889BB2FA889A4201D1FFF733
:1026580041FDFB88002B05D1FFF716FE104B002229
:102668001A7006E00E4B1B78002B02D00D4B1B781E
:1026780001E0054B1B7818461037BD4680BD00BFEA
:10268800EA010020F9010020FA010020FB010020E6
:10269800FC010020EC01002014000020C8010020EB
:1026A800010200200002002080B400AF26494FF04C
:1026B80000024FF00003C1E90023244B00221A70E6
:1026C800234B00221A70234B00221A70224B00223F
:1026D8001A80224B00221A70214B00221A70214BBB
:1026E80000221A60204B00221A70204B00221A7018
:1026F8001F4B00221A601F4B00221A701E494FF010
:1027080000024FF00003C1E900231C4B4FF47A721A
:102718001A601B4B00221A601A4B00221A601A4BCF
:1027280000221A70194B01221A70194B00221A70D4
:10273800184B00221A70184B00221A7000231846F2
:10274800BD465DF8047B7047F0010020F8010020C9
:10275800EC010020F9010020C8010020FA01002046
:10276800FB010020FC0100200002002001020020E3
:10277800CC010020D0010020D8010020100000204A
:10278800E0010020E4010020E801002014000020FE
:10279800E9010020EA010020EB01002080B400AF2D
:1027A800194B1B78DBB2002B29D1184B1B78DBB2F5
:1027B800002B0BD0164B1B78DBB2002B06D1154B28
:1027C80001221A70144B01221A7018E0104B1B7862
:1027D800DBB21A460D4B1B78DBB2002B0CBF012372
:1027E8000023DBB21340002B06D00A4B00221A70DC
:1027F800094B01221A7002E0074B00221A7000BF31
:10280800BD465DF8047B7047EA01002014000020F3
:10281800E9010020000200200102002080B586B0F6
:1028280000AFF860B9607A603B600023FB7504F084
:102838000BF83861FB681B68184604F01BFA002186
:10284800386803F079FF0246BB681A6003F064FF3A
:1028580002467B681A60BB681B68002B0FD0BB68F8
:102868001B681946386904F00BFD0246FB681A60BC
:10287800FB681B68002B04D1F623FB7501E0F823E5
:10288800FB7597F9173018461837BD4680BD00000C
:1028980080B584B000AFF860B9607A60FA68BB6848
:1028A80013441B7819460848FFF7DAF9FB68002B30
:1028B80002D0F86804F0DEF97B6800221A60002371
:1028C80018461037BD4680BDA0CE000880B584B03C
:1028D80000AFF860B9607A60FA68BB6813441B7887
:1028E80019460648FFF7BCF97B6802221A604FF0C8
:1028F800FF3318461037BD4680BD00BFFCCE000828
:1029080080B485B000AF03460A46FB711346BB711D
:102918000523FB73FB79F02B02D90023FB7322E01C
:10292800FB79E32B05D9FB79F02B02D80123FB7344
:1029380019E0FB79D22B02D9FB79E22B08D9FB7974
:10294800C02B08D1BB79002B05D0BB79022B02D84C
:102958000223FB7307E0FB79C72B04D9FB79D22B41
:1029680001D80323FB73FB7B18461437BD465DF87B
:10297800047B704780B58CB000AFF860B9607A60AE
:102988003B60FB68BB62BB6A1B7887F82730002373
:1029980087F82F3097F82730C02B06D1BB68012B5A
:1029A80003D9BB6A5B7887F82F30364B1B78002B2E
:1029B8003ED097F82F2097F8273011461846FFF792
:1029C8009FFF0346FB76002387F82E30FB7E052BFE
:1029D80023D0FB7E2C4A52F823307B6100233B61D5
:1029E8007B69002B19D097F827207B6910469847F8
:1029F80038613B69002B14BF01230023DBB287F841
:102A08002E3097F82E30002B07D03B695A687B6828
:102A18001A603B699A683B681A6097F82E30002B59
:102A28002CD17B68194A1A603B68194A1A6025E05C
:102A380097F82730FF2B1BD1134B1B683B627B6831
:102A480000221A603B6800221A603B6A002B15D0EE
:102A58003B6AFF209847F861FB69002B0ED0FB69A1
:102A68005A687B681A60FB699A683B681A6005E0D7
:102A78007B68084A1A603B6800221A6000BF30373A
:102A8800BD4680BD0302002008020020D5280008AA
:102A9800652B00089928000880B483B000AF03466E
:102AA800FB71044AFB79137000BF0C37BD465DF813
:102AB800047B70470302002080B400AF034B1B78EF
:102AC8001846BD465DF8047B704700BF040200202D
:102AD80080B483B000AF0346FB71064B1A78FB79CC
:102AE8001343DAB2034B1A7000BF0C37BD465DF8CA
:102AF800047B70470402002080B483B000AF034613
:102B0800FB7197F90730DB435AB2074B1B785BB26E
:102B180013405BB2DAB2044B1A7000BF0C37BD46E3
:102B28005DF8047B704700BF0402002080B400AF4A
:102B3800034B1B781846BD465DF8047B704700BF01
:102B48000502002080B400AF034B1B881846BD4621
:102B58005DF8047B704700BF0602002080B586B090
:102B680000AF0346B9607A60FB7397F90F30002B0A
:102B780005D1BB683B613B69FF221A7070E0BB68F6
:102B88007B617B69FE221A7097F90F300F330E2B89
:102B98005CD801A252F823F04D2C0008452C0008FF
:102BA8003D2C0008352C00082D2C00081D2C000891
:102BB800252C0008152C00080D2C0008052C0008F1
:102BC800FD2B0008E52B0008DD2B0008ED2B000885
:102BD800F52B00087B6930225A7041E07B69292275
:102BE8005A703DE07B6922225A7039E07B692022C5
:102BF8005A7035E07B6900225A7031E07B692322E4
:102C08005A702DE07B6921225A7029E07B691122D4
:102C18005A7025E07B6927225A7021E07B692A22B5
:102C28005A701DE07B6910225A7019E07B692422D2
:102C38005A7015E07B6928225A7011E07B692622B8
:102C48005A700DE07B6931225A7009E097F90F300C
:102C580019460548FFF704F87B6920225A70FFE7F8
:102C680000BF1837BD4680BD2CCF000880B487B0A0
:102C780000AF0346B9607A60FB7300237B61BB68D1
:102C8800002B23D000233B6100233B6117E03A6906
:102C980013465B0013449B001A46BB6813441B7819
:102CA800FA7B9A4208D13A6913465B0013449B00A9
:102CB8001A46BB6813447B613B6901333B613A693F
:102CC8007B689A4202D27B69002BE0D07B69184668
:102CD8001C37BD465DF8047B7047000080B582B0A4
:102CE80000AF78603960134B1B78002B05D0124871
:102CF800FEF7B6FF6FF00B0318E000F07BFC00F066
:102D080085FC03460D4A136002F02EFA02F048FAD9
:102D180003460A4A936003F059F903F061F9034640
:102D2800064A5360034B01221A70002318460837DD
:102D3800BD4680BD0202002070CF000808020020B6
:102D480080B58CB002AF002387F82730002387F8BE
:102D580026300023FB610023BB6100237B61002335
:102D68003B610023FB6000233B620023BB60002320
:102D78007B60554B1B78002B05D15448FEF770FF3C
:102D88006FF008039BE007F1140007F1180207F140
:102D98001C0107F1100300930346002003F026FCF2
:102DA800034687F8273097F92730002B09D097F981
:102DB800273013F1040F04D097F9273013F1050FCA
:102DC80071D1FB69002B05D07A693B691A44BB694C
:102DD8009A4203D9F82387F8273067E0FA697B69B4
:102DE80013443B6239693B1D07F10802386AFFF753
:102DF800C1FDBB68002B09D13B6A1B7819463448D2
:102E0800FEF72EFFF42387F827304FE0BB68F869F8
:102E1800796907F10C029847034687F826307B68E2
:102E2800002B3DD0FB68002B3AD0002387F82730D1
:102E38003A69FB689A420BD2FB6807F1140207F162
:102E4800180107F11C00FFF7E9FC034687F8273053
:102E58003B691A460021386A09F0ECFD97F92730DA
:102E6800002B1DD1FA697B6913443B627B68FA68C1
:102E780097F92600396A9847F969B8697B69FA6849
:102E88000192009303460A464FF6FF71012003F0B2
:102E980055FA034687F8273097F92730002B04D1D5
:102EA80097F927300BE000BF00E000BFFB69002B5B
:102EB80003D0FB69184603F0DDFE97F92730184662
:102EC8002837BD4680BD00BF02020020A0CF000801
:102ED800C8CF000880B584B000AF0346FB8000234C
:102EE800FB730023BB600D4B1B78002B05D10C48EE
:102EF800FEF7B6FE6FF008030CE005F0C9F8B860FD
:102F0800FB880022B968184602F066F90346FB738D
:102F180097F90F3018461037BD4680BD02020020D1
:102F2800F8CF000880B400AF034B1B781846BD46A5
:102F38005DF8047B704700BF0302002080B500AF36
:102F48000B4B1B78002B02D10A48FEF789FE03F0D1
:102F580063F802F005FF00F075FB10220021064817
:102F680009F068FD024B00221A700023184680BD44
:102F780002020020F0D000080802002080B584B0CA
:102F880000AF7860786802F0C5FC0346FB7397F9D8
:102F98000F3018461037BD4680BD80B584B000AFED
:102FA8000346FB800123FB73FA7BFB88002118464C
:102FB80002F012F90346BB7397F90E301846103722
:102FC800BD4680BD80B584B000AF0346FB710123C8
:102FD800FB6003F0F0FBB860FA79B968FB68B1FBF5
:102FE800F3F39A4234BF01230023DBB218461037AB
:102FF800BD4680BD80B584B000AF78600B46FB70DD
:1030080000F02AFBF860F9680648FEF729FE064B2F
:103018001B781A46F968786809F0FEFC00BF10377B
:10302800BD4680BD18D100082002002080B588B0B8
:1030380000AFF860B9607A600023FB77FA68BB6874
:103048001344BB61BB697B610023FB7402F0BAFDCA
:103058000346FB74FB7C002B08D11A48FEF700FEE0
:103068007B6802221A606FF00A0327E07B695B78AD
:10307800002B03D07B695B78012B01D1012300E091
:103088000023FB74FB7C002B0BD17B695B78194612
:103098000D48FEF7E5FD7B6802221A606FF0010318
:1030A8000CE00A48FEF7DCFD0120FFF7F5FC0023E1
:1030B800FB777B6808221A6097F91F30184620377B
:1030C800BD4680BD30D100087CD10008A0D10008E1
:1030D80080B586B000AF0346B9607A60FB7397F994
:1030E8000F30002B47D1BB687B610822002178692B
:1030F80009F0A0FC7B69FF221A7005227B695A70CF
:1031080000227B699A7003F056FB0346DAB27B69AA
:10311800DA7003F049FB03469AB27B699A807B69AF
:1031280001229A717B690122DA717B695B78194601
:103138001648FEF795FD7B699B7819461448FEF7FB
:103148008FFD7B69DB7819461248FEF789FD7B699C
:103158009B889BB219461048FEF782FD7B699B79D4
:1031680019460E48FEF77CFD7B69DB7919460C4849
:10317800FEF776FD06E097F90F307A68B9681846C9
:10318800FFF7ECFC00BF1837BD4680BDC8D100086A
:10319800E4D1000800D200081CD2000838D2000888
:1031A80054D2000880B586B000AFF860B9607A6084
:1031B8000123FB7502F006FD0346FB75FB7D002B22
:1031C80008D10B48FEF74CFD7B6802221A606FF0AD
:1031D8000A0309E00748FEF743FD0020FFF75CFCFF
:1031E8007B6801221A60002318461837BD4680BD47
:1031F80070D20008C0D2000880B584B000AFF86073
:10320800B9607A600548FEF72BFD7B6806221A60D4
:10321800002318461037BD4680BD00BFF0D2000815
:1032280080B586B000AF0346B9607A60FB73BB68AF
:103238007B6106220021786909F0FCFB7B69FF228B
:103248001A70FFF739FC03461A467B695A70FFF774
:103258006DFC03461A467B699A70FFF773FC0346B8
:103268001A467B699A807B695B7819460948FEF79C
:10327800F7FC7B699B7819460748FEF7F1FC7B69E8
:103288009B889BB219460548FEF7EAFC00BF183731
:10329800BD4680BDFCD2000820D3000844D30008F6
:1032A80080B586B000AFF860B9607A600023FB751E
:1032B8000B48FEF7D5FC02F06FFC0346FB75FB7D5F
:1032C800002B03D003F0A0FA02F075FC7B68022201
:1032D8001A606FF0040318461837BD4680BD00BF5A
:1032E80068D3000880B588B000AFF860B9607A602C
:1032F8000023FB77FA68BB681344BB61BB697B6139
:103308000023FB747B695A687B69DB781946104691
:1033180000F0AEF90346FB74FB7C002B08D10D4886
:10332800FEF79EFC7B6802221A606FF00B030CE02C
:103338007B6959687B69DB781A460748FEF790FC79
:103348007B6801221A6097F91F3018462037BD465E
:1033580080BD00BF70D300088CD3000880B58AB048
:1033680000AFF860B9607A60002387F82730FA6800
:10337800BB6813443B623B6AFB610023FB7600F0A9
:103388006BF97861FB695B781846FFF71BFE03460B
:10339800FB76FB7E002B0BD1FB695B781946124844
:1033A800FEF75EFC7B6802221A606FF0010316E0EC
:1033B8007B69002B08D10D48FEF752FC7B6802227E
:1033C8001A606FF00B030AE0FB695A78084B1A7011
:1033D800074B1B785A1C7B681A6097F927301846E8
:1033E8002837BD4680BD00BFC0D30008F0D3000811
:1033F8002002002080B588B000AF0346B9607A602B
:10340800FB7397F90F30002B30D100F025F9F861E4
:10341800BB68BB6101220021B86909F00BFBBB69DD
:10342800FF221A70FB69002B1CD0164B1B78013346
:103438007A689A4216D1BB6801337B610023FB741A
:103448001148FEF70DFCFB7C19467869FFF7D2FDA1
:103458000C4B1B78184600F029F90A4B00221A7009
:1034680000BF0AE00948FEF7FBFB06E097F90F30BA
:103478007A68B9681846FFF771FB00BF2037BD4668
:1034880080BD00BF200200200CD4000818D400081A
:1034980080B588B000AFF860B9607A600023FB7728
:1034A800FA68BB681344BB61BB697B610023FB748A
:1034B8007B695B781846FFF785FD0346FB74FB7C48
:1034C800002B0BD17B695B7819461748FEF7C8FBC0
:1034D8007B6802221A606FF0010320E07B695A685A
:1034E8007B69DB781946104600F0C2F80346FB7486
:1034F800FB7C002B08D10D48FEF7B2FB7B6802224B
:103508001A606FF00B030AE07B695A78084B1A704F
:10351800074B1B785A1C7B681A6097F91F301846AE
:103528002037BD4680BD00BF38D400086CD40008E1
:103538002002002080B588B000AF0346B9607A60E9
:10354800FB7397F90F30002B30D100F085F8F86144
:10355800BB68BB6101220021B86909F06BFABB693D
:10356800FF221A70FB69002B1CD0164B1B78013305
:103578007A689A4216D1BB6801337B610023FB74D9
:103588001148FEF76DFBFB7C19467869FFF732FDA1
:103598000C4B1B78184600F089F80A4B00221A7069
:1035A80000BF0AE00948FEF75BFB06E097F90F3019
:1035B8007A68B9681846FFF7D1FA00BF2037BD46C8
:1035C80080BD00BF200200208CD400089CD40008D5
:1035D80080B582B000AF0346FB71FB79072204492E
:1035E8001846FFF743FB034618460837BD4680BD1B
:1035F800D8F2000880B500AF034800F013F800F0D7
:1036080069F800BF80BD00BFD935000880B400AF9D
:10361800034B1B681846BD465DF8047B704700BF26
:103628002402002080B483B000AF7860044A7B682D
:10363800136000BF0C37BD465DF8047B704700BFC0
:103648002402002080B500AF00F04BF80020FFF7FF
:10365800E9FF00BF80BD000080B400AF034B1B68CA
:103668001846BD465DF8047B704700BF180200206D
:1036780080B483B000AF78600B46FB70FB78002BFA
:1036880004D17B68002B01D1002306E0064A7B6841
:103698001360054AFB781371012318460C37BD46A1
:1036A8005DF8047B704700BF1802002080B483B027
:1036B80000AF0346FB71064B1A68FB791344044AB2
:1036C800136000BF0C37BD465DF8047B704700BF30
:1036D8001802002080B400AF00BFBD465DF8047B2F
:1036E800704780B400AF00BFBD465DF8047B7047EB
:1036F80080B584B000AF0346FB800023FB7305F060
:1037080088FF03460B4A13600B4B1B68002B0CBF4A
:1037180001230023DBB2FB73FB7B002B04D1054B99
:103728001B68184605F086FFFB7B18461037BD4618
:1037380080BD00BF340200203002002080B582B076
:1037480000AF0346FB80044B1B68184605F072FF68
:1037580000BF0837BD4680BD3402002080B582B066
:1037680000AF0346FB8005F054FF0346074A136089
:10377800074B1B680133064A1360044B1B68184645
:1037880005F058FF00BF0837BD4680BD3402002051
:103798003002002080B582B000AF0346FB8005F000
:1037A80038FF0346074A1360074B1B68013B064A6C
:1037B8001360044B1B68184605F03CFF00BF083730
:1037C800BD4680BD340200203002002080B483B0A2
:1037D80000AF0346FB80104B1968FA8813465B005C
:1037E8001344DB000B445B79022B0AD00A4B19689F
:1037F800FA8813465B001344DB000B445B79032B08
:1038080001D1012300E00023DBB218460C37BD4686
:103818005DF8047B704700BF2802002080B582B0A5
:1038280000AF0023FB710023BB800023BB8008E0AE
:10383800BB881846FFF7CAFF0346FB71BB880133F4
:10384800BB80094B9B88BA889A4202D2FB79002B2D
:10385800EED0FB79002B0CBF01230023DBB2184606
:103868000837BD4680BD00BF2802002080B485B05F
:1038780000AF0346FB800B467B7113463B71284B18
:103888001B68002B42D0264B9B88FA889A423DD26F
:10389800234B1968FA8813465B001344DB000B447A
:1038A8001B68002B32D01E4B1968FA8813465B0040
:1038B8001344DB000B441B797A799A4226D2184BC1
:1038C8001968FA8813465B001344DB000B44196837
:1038D8007A7913465B001344DB000B441B68002B0A
:1038E80014D00F4B1968FA8813465B001344DB00A9
:1038F8000B4419687A7913465B001344DB000B44C8
:103908001B793A799A4201D2012300E00023FB7324
:10391800FB7B18461437BD465DF8047B704700BF33
:103928002802002080B485B000AF03463A60FB71DE
:103938000B46BB710023FB73BB79BB81FB79FF2B63
:1039480004D1BB89FF2B01D80123FB73FB7B1846ED
:103958001437BD465DF8047B704780B483B000AF70
:103968000346FB71FB7923F01003002B0CBF0123E6
:103978000023DBB218460C37BD465DF8047B704760
:1039880080B485B000AF0346FB710023FB73FB795D
:10399800002B05D0FB79012B02D0FB79022B01D13A
:1039A8000123FB73FB7B18461437BD465DF8047B87
:1039B800704780B485B000AF0346FB710023FB73EA
:1039C800FB79002B05D0FB79012B02D0FB79022B68
:1039D80001D10123FB73FB7B18461437BD465DF804
:1039E800047B704780B400AF01231846BD465DF8DC
:1039F800047B704780B485B000AF0346FB80164B4C
:103A08001968FA8813465B001344DB000B441B7BE0
:103A1800022B0ED1104B1968FA8813465B00134429
:103A2800DB000B44DA880D4B1B889A4201D0012336
:103A380000E00023FB73FB7B002B04D0FB88002BEA
:103A480001D1012300E00023FB73FB7B18461437E8
:103A5800BD465DF8047B7047280200202000002046
:103A680080B588B000AF78600023FB740023FB6149
:103A78000023BB610023BB612AE07B681968BA692F
:103A880013465B001344DB000B449B687A68D289B9
:103A980002FB03F301337B610023FB60BB69002B4E
:103AA80008D17B681B7A03F01003002B02D07B69D6
:103AB80004337B610121786902F03EFEF860FA6800
:103AC800FB699A4201D9FB68FB61BB690133BB61A1
:103AD8007B681B791A46BB699342CEDB7B681B79EE
:103AE8001A4613465B00134419467B6814331A467A
:103AF800F86903F077F90346FB7497F91330002B44
:103B080003D07B684FF0FF325A6197F9133018469B
:103B18002037BD4680BD80B582B000AF78607B6835
:103B28005B69B3F1FF3F04D07B685B69184603F01B
:103B38006BFA7B684FF0FF325A6100BF0837BD4609
:103B480080BD000080B58AB000AFF860B9607A60C7
:103B5800002387F82730FA68BB6813443B623B6A46
:103B6800FB61FB699A78DB781B0213437B83FB6953
:103B78001B797B76FB695B793B760023FB753A7E84
:103B8800797E7B8B1846FFF771FE0346FB75FB7D3C
:103B9800002B0BD1798B7A7E3B7E1D48FEF760F8AF
:103BA8007B6802221A606FF001032CE07B8B1846B9
:103BB800FFF70CFE0346002B0CBF01230023DBB2EA
:103BC800FB75FB7D002B0AD17B8B19461148FEF74C
:103BD80047F87B6802221A606FF0070313E0798BBD
:103BE8007A7E3B7E0C48FEF73BF80C4A7B8B1380B1
:103BF8000A4A7B7E9370094A3B7ED3707B68012218
:103C08001A6097F9273018462837BD4680BD00BF8F
:103C1800C4D4000808D5000838D500081C000020C6
:103C2800F0B58FB004AFF860B9607A60002387F808
:103C38002730FA68BB6813443B623B6AFB61584B08
:103C48001B887B83564B9B787B76554BDB783B7682
:103C580000237B610023FB743A7E797E7B8B1846B8
:103C6800FFF704FE0346FB74FB7C002B0BD1798B1A
:103C78007A7E3B7E4B48FDF7F3FF7B6802221A6091
:103C88006FF0050387E07B8B1846FFF79FFD03461F
:103C9800002B0CBF01230023DBB2FB74FB7C002B41
:103CA8000AD17B8B19464048FDF7DAFF7B68022270
:103CB8001A606FF007036EE0FB695878FB69997822
:103CC800FB695B681A46FFF72DFE0346FB74FB7C15
:103CD800002B1BD1798B7A7E387EFB695B781C467A
:103CE800FB699B781D46FB69DB781E46FB695B68B0
:103CF800039302960195009403462C48FDF7B0FF04
:103D08007B6802221A606FF0010344E0798B7A7EA7
:103D1800387EFB695B781C46FB699B781D46FB690E
:103D2800DB781E46FB695B68039302960195009455
:103D380003461F48FDF794FF1E4B19687A8B1346FC
:103D48005B001344DB000B4419687A7E13465B0062
:103D58001344DB000B441A683B7EDB0013447B6191
:103D6800FB695A787B691A70FB699A787B695A7083
:103D7800FB69DA787B699A70FB695A687B695A60D3
:103D8800074BDB780133DAB2054BDA707B68012226
:103D98001A6097F9273018462C37BD46F0BD00BF8A
:103DA8001C00002088D50008E4D5000814D60008B7
:103DB8008CD600082802002090B58DB002AFF860BC
:103DC800B9607A60002387F82730FA68BB68134423
:103DD8003B623B6AFB610023BB610023FB75614BBF
:103DE8001B68002B08D0FB695B889AB25D4B9B88E7
:103DF8009A4201D2012300E00023FB75FB7D002BD2
:103E08000CD1FB695B889BB219465748FDF728FF20
:103E18007B6802221A606FF001039FE0514B1A6819
:103E2800FB695B889BB219460B465B000B44DB00C1
:103E38001344BB61FB695B889BB21846FFF7C6FC5D
:103E48000346002B0CBF01230023DBB2FB75FB7D6F
:103E5800002B0CD1FB695B889BB219464348FDF7E0
:103E6800FFFE7B6802221A606FF0070376E0FB69A9
:103E78009B889BB27F2B94BF01230023DBB2FB7589
:103E8800FB7D002B0CD1FB699B889BB219463848F7
:103E9800FDF7E6FE7B6802221A606FF001035DE021
:103EA800FB69DB79002B0CBF01230023DBB2FB7518
:103EB800FB7D002B08D12F48FDF7D2FE7B6802223C
:103EC8001A606FF0010349E0FB695B781846FFF759
:103ED80044FD0346FB75FB7D002B0BD1FB695B782A
:103EE80019462548FDF7BCFE7B6802221A606FF070
:103EF800090333E0FB695B889BB21946FB695B7871
:103F08001846FB699B889BB21C46FB699B791A463D
:103F1800FB69DB7901930092234602461748FDF7B7
:103F28009FFEFB695A78BB691A72FB699B889AB233
:103F3800BB69DA80FB699A79BB695A72FB69DA79DD
:103F4800BB699A72BB695B7A012B02D8BB690122F3
:103F58005A727B6801221A6097F9273018462C3765
:103F6800BD4690BD28020020FCD600082CD70008CA
:103F780060D7000890D70008CCD7000800D8000800
:103F880090B58FB000AFF860B9607A60002387F809
:103F98002630FA68BB6813443B623B6AFB61002326
:103FA800BB61FB695B889BB27B61002387F8373074
:103FB8000023FB74AB4B1B68002B07D0A94B9B88D5
:103FC8001A467B69934201DA012300E0002387F84F
:103FD800373097F83730002B09D17969A248FDF7B7
:103FE8003FFE7B6802221A606FF00103B3E19F4A2B
:103FF8007B6913609B4B19687A6913465B0013440D
:10400800DB000B44BB61FB695B781846FFF7B8FC23
:10401800034687F8373097F83730002B0BD1FB6908
:104028005B7819469248FDF71BFE7B6802221A60EE
:104038006FF009038FE1FFF7D5FC0346002B5AD038
:10404800BB695B79002B56D1BB691B7A03F002036D
:10405800002B21D0BB691B68002B09D0814BDB7971
:104068001A46BB691B791344802B01DC012300E04D
:10407800002387F8373097F83730002B2DD0794B4D
:10408800DA79BB69DA72774BDA79BB691B79134441
:10409800DAB2744BDA7120E0BB691B68002B09D0D7
:1040A800704B9B791A46BB691B791344FC2B01DCC6
:1040B800012300E0002387F8373097F83730002BCA
:1040C8000BD0684B9A79BB69DA72664B9A79BB69EF
:1040D8001B791344DAB2634B9A7197F83730002B87
:1040E80009D179696348FDF7BBFD7B6802221A6034
:1040F8006FF008032FE1FB695B78012B04D0FB69A3
:104108005B78022B40F0828000233B63012387F811
:10411800373000233B636FE00023FB620023BB6260
:104128000023FB6213E0BB6919683A6B13465B0016
:104138001344DB000B441A68FB6ADB0013445B780A
:104148001A46BB6A1344BB62FB6A0133FB62BB6954
:1041580019683A6B13465B001344DB000B441B7968
:104168001A46FB6A9342DEDB3B6B002B17D1BB6917
:104178001B7A03F01003002B11D0BB69DB891A46A8
:10418800BB6A03FB02F35C1D02F00EFB03469C4274
:1041980094BF01230023DBB287F8373010E0BB69F6
:1041A800DB891A46BB6A03FB02F35C1C02F0FCFACB
:1041B80003469C4294BF01230023DBB287F83730C3
:1041C80097F83730002B0AD13A6B79692A48FDF7FE
:1041D80047FD7B6802221A606FF00803BBE0BB69E9
:1041E80019683A6B13465B001344DB000B44BA6A48
:1041F8009A603B6B01333B63BB691B791A463B6B87
:10420800934203DA97F83730002B85D1BB69DB88F6
:104218001846FFF76DFA0346FB74FB7C002B00F091
:104228008C80002387F82730FB695B78022B61D0EC
:10423800022B6DDC002B02D0012B21D068E07969BC
:104248000E48FDF70DFDBB6901225A71FFF7E6FA2A
:104258000346002B59D00120FEF71EFC4020FEF734
:104268004BFC52E02802002064D800081800002007
:1042780094D80008C4D8000800D9000864D90008F8
:1042880079693748FDF7ECFCBB695B69B3F1FF3F1F
:1042980022D1BB69DA88334B1B889A420CD1314B47
:1042A8005868304B9968BB6914331A4602F058FFB6
:1042B800034687F827300FE07B69002B0CDCBB69CD
:1042C800DB88002B08D1B869FFF7CAFB034687F8DB
:1042D8002730BB6900221A8297F92730002B16D1A4
:1042E800BB6903225A710220FEF7D6FB4020FEF775
:1042F800EFFB0CE0FB695B889BB219461A48FDF797
:10430800AFFCBB6902225A7102E000BF00E000BFA7
:10431800BB69DB881846FFF711FA7B6802221A602E
:1043280097F92730002B08D01048FDF799FC7B68D7
:1043380002221A606FF002030DE0FB7C002B08D10B
:104348000B48FDF78DFC7B6802221A606FF00A03A8
:1043580001E097F9263018463C37BD4690BD00BFAE
:1043680090D9000820000020BCD90008E8D900082E
:1043780034DA000880B586B000AF0346B9607A60C9
:10438800FB7397F90F30002B12D1BB687B617B69F7
:10439800FF221A700C4B1A680C4B1B6819460B4607
:1043A8005B000B44DB001344DA7A7B695A7006E041
:1043B80097F90F307A68B9681846FEF7CFFB00BF47
:1043C8001837BD4680BD00BF280200201800002015
:1043D80090B58BB000AFF860B9607A600023FB77C6
:1043E800FA68BB681344BB61BB697B610023FB743B
:1043F8000023BB7400237B627B695B781846FFF758
:10440800D8FA0346FB74FB7C002B0BD17B695B78E5
:104418001946B148FDF724FC7B6802221A606FF048
:10442800090354E1AD4B1B68002B05D0AB4B9B88AF
:10443800002B01D0012300E00023FB74FB7C002B40
:1044480008D1A748FDF70CFC7B6802221A606FF0C0
:1044580001033CE101F0A0FB0346BB74BB7C002BCD
:1044680000F02781002387F8233000233B847B69F1
:104478005B78022B00F0D580022B00F30681002B1D
:1044880002D0012B2CD000E100237B621BE0934B70
:1044980019687A6A13465B001344DB000B445B79A6
:1044A800002B0DD0796A8F48FDF7DAFB8B4B196822
:1044B8007A6A13465B001344DB000B4401225A71ED
:1044C8007B6A01337B62854B9B881A467B6A9342E1
:1044D800DDDB0120FEF7E0FA4020FEF70DFBD4E01B
:1044E80000237B6263E07D4B19687A6A13465B00A0
:1044F8001344DB000B445B79022B55D1774B1968C9
:104508007A6A13465B001344DB000B445B69B3F122
:10451800FF3F49D1714B19687A6A13465B0013440F
:10452800DB000B44DA88704B1B889A4214D16E4B1F
:1045380058686D4B9C68694B19687A6A13465B002A
:104548001344DB000B4414331A46214602F008FEDC
:10455800034687F8233027E07B6A002B24DC5F4B77
:1045680019687A6A13465B001344DB000B44DB8846
:10457800002B19D1594B19687A6A13465B0013440A
:10458800DB000B441846FFF76BFA034687F8233025
:10459800524B19687A6A13465B001344DB000B44DC
:1045A80000221A827B6A3B847B6A01337B624B4B15
:1045B8009B881A467B6A934203DA97F92330002BCB
:1045C80091D097F92330002B5CD100237B6221E046
:1045D800424B19687A6A13465B001344DB000B44AC
:1045E8005B79022B13D1796A4048FDF739FB3B4BC5
:1045F80019687A6A13465B001344DB000B440322F4
:104608005A710220FEF748FA4020FEF761FA7B6AE9
:1046180001337B62314B9B881A467B6A9342D7DB16
:1046280030E000237B621BE02C4B19687A6A134642
:104638005B001344DB000B445B79022B0DD1796AD4
:104648002848FDF70DFB254B19687A6A13465B006D
:104658001344DB000B4401225A717B6A01337B62ED
:104668001E4B9B881A467B6A9342DDDBFFF7D6F820
:104678000346002B08D00120FEF70EFA4020FEF773
:104688003BFA01E000BF00E000BF01F094FA97F99F
:104698002330002B0AD03B8C19461548FDF7E0FA69
:1046A8007B6802221A606FF0020310E07B68012227
:1046B8001A60BB7C002B08D10E48FDF7D1FA7B6845
:1046C80002221A606FF00A0301E097F91F301846BA
:1046D8002C37BD4690BD00BF7CDA000828020020B8
:1046E800ACDA0008D8DA00082000002000DB000857
:1046F80028DB000874DB000880B584B000AFF860E0
:10470800B9607A600548FDF7ABFA7B6808221A6041
:10471800002318461037BD4680BD00BFB8DB00082F
:1047280080B586B000AF0346B9607A60FB73BB689A
:104738007B6108220021786908F07CF97B69FF22F7
:104748001A707B6911225A707B694FF0FF329A7098
:104758004FF0FF32DA707B69002262F07F021A7133
:1047680000225A717B6900229A717B690022DA71F2
:104778007B695B7819461048FDF772FA7B695B889C
:104788009BB219460D48FDF76BFA7B699B889BB273
:1047980019460B48FDF764FA7B699B791946094865
:1047A800FDF75EFA7B69DB7919460748FDF758FA89
:1047B80000BF1837BD4680BDD0DB0008ECDB000821
:1047C80008DC000824DC000840DC000880B584B060
:1047D80000AFF860B9607A600548FDF741FA7B6878
:1047E80008221A60002318461037BD4680BD00BF56
:1047F8005CDC000880B586B000AF0346B9607A601B
:10480800FB73BB687B6108220021786908F012F904
:104818007B69FF221A707B6901225A707B69FF222B
:104828009A707B690122DA707B69FF221A717B69B1
:1048380034225A717B69002242F001029A710022E7
:10484800DA717B695B7819461248FDF709FA7B69CA
:104858009B7819461048FDF703FA7B69DB781946FF
:104868000E48FDF7FDF97B691B7919460C48FDF7E1
:10487800F7F97B695B7919460A48FDF7F1F97B6915
:10488800DB889BB219460848FDF7EAF900BF1837DC
:10489800BD4680BD78DC0008A0DC0008C8DC000844
:1048A800F0DC000818DD000844DD000880B586B09B
:1048B80000AFF860B9607A600023FB750023BB7510
:1048C8000F48FDF7CDF901F07DF90346BB75BB7DB7
:1048D800002B08D10B48FDF7C3F97B6802221A6048
:1048E8006FF00A0307E00120FEF7D6F87B68012283
:1048F8001A6097F9173018461837BD4680BD00BFB3
:104908006CDD00089CDD000880B58CB000AFF86055
:10491800B9607A60002387F82B30FA68BB681344C3
:104928007B627B6A3B623B6A5B889BB2FB610023CC
:10493800BB610023FB750023FB62514B1B68002BF6
:104948000CBF01230023DBB2FB75FB7D002B08D1D4
:104958004C48FDF785F97B6802221A606FF0030363
:104968008AE0FB69002B05DDFB69B3F5803F01DABE
:10497800012300E00023FB75FB7D002B09D1F969B9
:104988004148FDF76DF97B6802221A606FF0010358
:1049980072E0FA6913465B001344DB001A46F969B2
:1049A8003A48FDF75DF9FA6913465B001344DB00EA
:1049B800184602F0EBF8B861BB69002B09D1F96918
:1049C8003348FDF74DF97B6802221A606FF0020345
:1049D80052E0FA6913465B001344DB001A460021D3
:1049E800B86908F027F8264ABB691360FB699AB2D0
:1049F800234B9A800023FB6235E0FA6A13465B007A
:104A08001344DB001A46BB6913444FF0FF325A6166
:104A1800FA6A13465B001344DB001A46BB69134469
:104A280000221A73FA6A13465B001344DB001A4625
:104A3800BB69134401225A73FA6A13465B00134494
:104A4800DB001A46BB6913440122DA81FA6A13466D
:104A58005B001344DB001A46BB69134400221A8228
:104A6800FB6A0133FB62FA6AFB699A42C5DB7B6821
:104A780001221A6097F92B3018463037BD4680BDA1
:104A880028020020D8DD00081CDE00084CDE0008E3
:104A980078DE000890B589B000AFF860B9607A6038
:104AA8000023FB77FA68BB681344BB61BB697B6171
:104AB8007B699A78DB781B0213437B827B691B79BD
:104AC8007B7400233B745C4B1B68002B14BF0123D1
:104AD8000023DBB23B743B7C002B08D15748FDF721
:104AE800BFF87B6802221A606FF003039FE0524B05
:104AF8009B887A8A9A4234BF01230023DBB23B7435
:104B08003B7C002B0AD17B8A19464D48FDF7A8F853
:104B18007B6802221A606FF0010388E07B7C002B1F
:104B280004D07B7CFC2B01D8012300E000233B74DC
:104B38003B7C002B0BD17B7C7A8A19464148FDF7D8
:104B48008FF87B6802221A606FF001036FE03A4B1E
:104B580019687A8A13465B001344DB000B441B6810
:104B6800002B0CBF01230023DBB23B743B7C002BE2
:104B780008D13548FDF774F87B6802221A606FF097
:104B8800030354E0797C788A7A7C13465B001344EB
:104B9800DB0002462D48FDF763F87A7C13465B007C
:104BA8001344DB001846244B19687A8A13465B00C5
:104BB8001344DB00CC1801F0E9FF034623601E4BC9
:104BC80019687A8A13465B001344DB000B441B68A0
:104BD800002B0BD17B7C7A8A19461D48FDF740F8DB
:104BE8007B6802221A606FF0020320E0124B1968FA
:104BF8007A8A13465B001344DB000B4418687A7CFE
:104C080013465B001344DB001A46002107F012FF2D
:104C1800094B19687A8A13465B001344DB000B447E
:104C28007A7C1A717B6801221A6097F91F3018463E
:104C38002437BD4690BD00BF28020020B0DE000822
:104C4800F0DE00081CDF000858DF000894DF0008C9
:104C5800CCDF000890B58DB002AFF860B9607A601B
:104C6800002387F82730FA68BB6813443B623B6A25
:104C7800FB61FB699A78DB781B0213437B83FB6932
:104C88001B797B76FB695B793B760023FB75844B4C
:104C98001B68002B14BF01230023DBB2FB75FB7DCF
:104CA800002B08D17F48FCF7DBFF7B6802221A60E3
:104CB8006FF00303F0E07A4B9B887A8B9A4234BFFB
:104CC80001230023DBB2FB75FB7D002B0AD17B8B14
:104CD80019467548FCF7C4FF7B6802221A606FF01A
:104CE8000103D9E06E4B19687A8B13465B001344B5
:104CF800DB000B441B68002B14BF01230023DBB22D
:104D0800FB75FB7D002B08D16848FCF7A9FF7B6881
:104D180002221A606FF00303BEE0614B19687A8BB8
:104D280013465B001344DB000B441B797A7E9A42DE
:104D380034BF01230023DBB2FB75FB7D002B0AD1B6
:104D48007B7E19465A48FCF78BFF7B6802221A6063
:104D58006FF00103A0E0524B19687A8B13465B0091
:104D68001344DB000B4419687A7E13465B00134436
:104D7800DB000B441B68002B0CBF01230023DBB2B4
:104D8800FB75FB7D002B08D14A48FCF769FF7B685F
:104D980002221A606FF003037EE03B7E002B14BFF3
:104DA80001230023DBB2FB75FB7D002B0BD1397E81
:104DB8007A7E7B8B4048FCF753FF7B6802221A609F
:104DC8006FF0010368E0397E7A8B787E3B7EDB00EA
:104DD800009303463948FCF743FF3B7ED800304B2D
:104DE80019687A8B13465B001344DB000B4419687F
:104DF8007A7E13465B001344DB00CC1801F0C6FE34
:104E080003462360264B19687A8B13465B001344CC
:104E1800DB000B4419687A7E13465B001344DB0001
:104E28000B441B68002B0BD1397E7A8B7B7E244880
:104E3800FCF716FF7B6802221A606FF002032BE072
:104E4800174B19687A8B13465B001344DB000B443D
:104E580019687A7E13465B001344DB000B4418681C
:104E68003B7EDB001A46002107F0E4FD0C4B196875
:104E78007A8B13465B001344DB000B4419687A7E77
:104E880013465B001344DB000B443A7E1A717B68BF
:104E980001221A6097F9273018462C37BD4690BD75
:104EA800280200200CE0000850E0000884E0000818
:104EB800C4E00008F0E000083CE100088CE10008CC
:104EC800D8E1000880B58AB000AFF860B9607A60B0
:104ED800002387F82730FA68BB6813443B623B6AB3
:104EE800FB61FB699A78DB781B0213437B83FB69C0
:104EF8001B797B76FB695B793B76FB699A79DB7971
:104F08001B021343FB8201237B756C4B1B68002B30
:104F180014BF01230023DBB27B757B7D002B08D1F6
:104F28006748FCF79DFE7B6802221A606FF0030356
:104F3800C0E0624B9B887A8B9A4234BF01230023DE
:104F4800DBB27B757B7D002B0AD17B8B19465D48D4
:104F5800FCF786FE7B6802221A606FF00103A9E065
:104F68007B8B002B0CBF01230023DBB27B757B7D81
:104F7800002B0AD17B8B19465348FCF771FE7B68DE
:104F880002221A606FF0090394E07B7E002B02D0A6
:104F98007B7E022B01D1012300E000237B757B7D02
:104FA800002B0AD17B7E19464848FCF759FE7B68DE
:104FB80002221A606FF009037CE03B7E012B0CBFD4
:104FC80001230023DBB27B757B7D002B0AD13B7E5E
:104FD80019463F48FCF744FE7B6802221A606FF0CE
:104FE800090367E07B7E002B02D1FB8A012B05D0E9
:104FF8007B7E002B04D0FB8A012B01D9012300E022
:1050080000237B757B7D002B0AD1FB8A194631482A
:10501800FCF726FE7B6802221A606FF0090349E05C
:105028007B8B1846FEF7D2FB0346002B0CBF0123EF
:105038000023DBB27B757B7D002B08D12648FCF76B
:105048000FFE7B6802221A606FF0070332E0797E58
:105058003A7EFB8A2148FCF703FE184B19687A8BC5
:1050680013465B001344DB000B447A7E1A73134B20
:1050780019687A8B13465B001344DB000B443A7EB5
:105088005A730E4B19687A8B13465B001344DB0086
:105098000B44FA8ADA81094B19687A8B13465B004C
:1050A8001344DB000B4400221A827B6801221A6039
:1050B80097F9273018462837BD4680BD28020020BA
:1050C80028E2000870E20008A8E200080CE30008E3
:1050D80048E300088CE30008D0E300082CE400084B
:1050E80080B588B000AFF860B9607A600023FB77BC
:1050F800FA68BB681344BB61BB695B78012B0CBFC2
:1051080001230023DBB2FB75FB7D002B0BD1BB69B0
:105118005B7819460A48FCF7A3FD7B6802221A60EF
:105128004FF0FF3308E07A68B968F868FFF7CAFEFD
:105138000346FB7797F91F3018462037BD4680BDD8
:105148007CE4000880B582B000AF0346FB71FB79B0
:105158000C2204491846FDF789FD0346184608370E
:10516800BD4680BD2CF3000880B500AF084B002277
:105178001A60084B00221A6008220021064807F02E
:1051880059FC064800F018F800F0FAFD00BF80BD91
:105198003402002030020020280200204D5100086F
:1051A80080B400AF034B1B681846BD465DF8047B0E
:1051B800704700BF3802002080B483B000AF786029
:1051C800044A7B68136000BF0C37BD465DF8047B5A
:1051D800704700BF3802002090B595B002AF034673
:1051E8003960FB8013467B71002387F84730002322
:1051F80087F84630FB881846FEF7B0FABA4B1B68AA
:10520800002B00F07983B84B9B88002B00F0748347
:105218000023A7F84430B44B1B683B630023A7F86E
:1052280044305EE3B7F844301946002001F06CF8CA
:10523800034687F82F3097F82F30002B01D0002332
:1052480001E04FF0FF33BB62B7F8442013465B0020
:105258001344DB001A463B6B13441B7A03F002032A
:10526800002B40F03983B7F8442013465B00134401
:10527800DB001A463B6B13445B79032B40F02C830D
:10528800B7F8442013465B001344DB001A463B6B17
:105298001344DB88FA889A4240F01E8300233B645B
:1052A800B7F844301846FEF7A5FB034687F82730C1
:1052B80097F82730002B16D0B7F8442013465B0028
:1052C8001344DB001A463B6B13441B8A591CB7F87E
:1052D800442013465B001344DB001A463B6B13441F
:1052E800DB89994201D1012300E0002387F82630A9
:1052F80000233B6496E20023FB6301F00DFA386259
:105308000023FB61002387F83B307B79002B26D0F4
:1053180097F82730002B00F06081B7F84420134637
:105328005B001344DB001A463B6B13441B8A002BBB
:1053380000F05381B7F8442013465B001344DB00A8
:105348001A463B6B134419683A6C13465B001344C6
:10535800DB000B44DB68184601F08CFC3DE197F854
:105368002730002B0BD0B7F8442013465B001344BA
:10537800DB001A463B6B13441B8A002B01D1012327
:1053880000E00023FB763B6C002B0FD1B7F84420DC
:1053980013465B001344DB001A463B6B13441B7A2D
:1053A80003F01003002B01D0012300E00023BB769B
:1053B800FB7E002B00F01181B7F8442013465B00F8
:1053C8001344DB001A463B6B134419683A6C1346C6
:1053D8005B001344DB000B449968B7F8442013467C
:1053E8005B001344DB001A463B6B1344DB8903FB69
:1053F80001F1B7F8442013465B001344DB001A465A
:105408003B6B134418683A6C13465B001344DB008B
:1054180003444A1C1A61BB7E002B22D0B7F84420F3
:1054280013465B001344DB001A463B6B13441968B0
:105438003A6C13465B001344DB000B441969B7F858
:10544800442013465B001344DB001A463B6B1344AD
:1054580018683A6C13465B001344DB0003440A1DCA
:105468001A61B7F8442013465B001344DB001A4660
:105478003B6B134419683A6C13465B001344DB001A
:105488000B441B690121184601F056F9F861B7F879
:10549800442013465B001344DB001A463B6B13445D
:1054A8005B69B3F1FF3F21D0B7F8442013465B0096
:1054B8001344DB001A463B6B13445869B7F8442081
:1054C80013465B001344DB001A463B6B1344196810
:1054D8003A6C13465B001344DB00CC18F96901F001
:1054E800CFFE0346E36016E028020020B7F8442008
:1054F80013465B001344DB001A463B6B13441968E0
:105508003A6C13465B001344DB00CC18F86901F0D1
:105518003DFB0346E360B7F8442013465B001344A1
:10552800DB001A463B6B134419683A6C13465B0060
:105538001344DB000B44DB68002B48D0B7F8442049
:1055480013465B001344DB001A463B6B134419688F
:105558003A6C13465B001344DB000B44DA683B6A81
:105568001344FB63B7F8442013465B001344DB0085
:105578001A463B6B1344DA7A3B6CDBB21344DAB25B
:10558800FB6B1A70FB6B0133FB63BB7E002B0BD0EC
:105598003A68FB6B1A6097F83B300433FA6B134494
:1055A800FB63002387F83B30B7F8442013465B00C1
:1055B8001344DB001A463B6B134419683A6C1346D4
:1055C8005B001344DB000B44FA6B5A6105E00123CE
:1055D80087F84630F62387F847307B79002B40F070
:1055E8001E8197F84630002B40F01981B7F8442007
:1055F80013465B001344DB001A463B6B13441968DF
:105608003A6C13465B001344DB000B44DB68002B49
:1056180000F00581BD4B1B88FA889A4200F09E80F5
:1056280000237B6397F82730002B11D0B7F844206C
:1056380013465B001344DB001A463B6B134419689E
:105648003A6C13465B001344DB000B445B69FB6355
:1056580000237B6357E0B7F8442013465B001344EC
:10566800DB001A463B6B134419683A6C13465B001F
:105678001344DB000B441A687B6BDB0013447B612B
:105688007B695B683B61B7F8442013465B001344B1
:10569800DB001A463B6B134419683A6C13465B00EF
:1056A8001344DB000B441A687B6BDB0013441B7844
:1056B800FF2B12D03B69FB60FB681B687A69127884
:1056C800114601228A401340002B14BF01230023F6
:1056D800DBB21A46FB6B1A7006E07B695B781A46E8
:1056E8003969F86B07F098F97B695B781A4697F87F
:1056F8003B301344FA6B1344FB63002387F83B30B9
:105708007B6B01337B63B7F8442013465B0013447B
:10571800DB001A463B6B134419683A6C13465B006E
:105728001344DB000B441B791A467B6B934292DBD4
:1057380097F82730002B11D0B7F8442013465B00A8
:105748001344DB001A463B6B134419683A6C134642
:105758005B001344DB000B44FA6B5A6197F8263060
:10576800002B5CD0B7F8442013465B001344DB00E1
:105778001A463B6B134419683A6C13465B00134492
:10578800DB000B441B690121184600F0D5FFF861C6
:10579800B7F8442013465B001344DB001A463B6B02
:1057A800134419683A6C13465B001344DB000B443E
:1057B800D868B7F8442013465B001344DB001A4648
:1057C8003B6B134419683A6C13465B001344DB00C7
:1057D8000B441B69B7F8441001933B6A0093FB69BB
:1057E8000246B86A00F0AAFD034687F8473097F9E1
:1057F8004730002B13D0B7F8442013465B001344FE
:10580800DB001A463B6B134419683A6C13465B007D
:105818001344DB000B44DB68184601F02BFA3B6CA1
:1058280001333B64B7F8442013465B001344DB00A4
:105838001A463B6B13441B791A463B6C934204DAB5
:1058480097F84630002B3FF456AD7B79002B0BD0F0
:10585800B7F8442013465B001344DB001A463B6B41
:10586800134400221A822DE0B7F8442013465B0047
:105878001344DB001A463B6B13441A8A013292B276
:105888001A82B7F8442013465B001344DB001A461B
:105898003B6B1344198AB7F8442013465B00134442
:1058A800DB001A463B6B1344DB8999420AD1B7F8EF
:1058B800442013465B001344DB001A463B6B134439
:1058C80000221A8297F82F30002B05D0B7F8443001
:1058D8001946002000F025FDB7F844300133A7F839
:1058E80044300B4B9B88B7F844209A4204D297F86F
:1058F8004630002B3FF496ACFB881846FDF74AFF6C
:1059080097F9473018464C37BD4690BD2000002017
:105918002802002080B58EB002AF7860002387F897
:105928002F309C4B1B68002B00F02E8100F034F9BF
:10593800034687F8293097F82930002B00F0218199
:10594800944B1B687B62934B9B883B620023BB850F
:105958000023BB850DE1BB8D1846FEF74BF80346C7
:10596800FB77FB7F002B00F00181BA8D13465B00AB
:105978001344DB001A467B6A13445B79032B40F01F
:10598800F580BA8D13465B001344DB001A467B6A28
:1059980013441B8A002B00F0E980BB8D19460020B8
:1059A80000F0B2FC0346BB77BB7F002B01D000237D
:1059B80001E04FF0FF33BB6100237B8500237B852B
:1059C800BCE0BA8D13465B001344DB001A467B6AC1
:1059D800134419687A8D13465B001344DB000B44AB
:1059E800DB68002B00F0A780BA8D13465B001344D8
:1059F800DB001A467B6A134419687A8D13465B00EC
:105A08001344DB000B441B690121184600F094FE87
:105A1800786100F081FE3861BA8D13465B0013444B
:105A2800DB001A467B6A134419687A8D13465B00BB
:105A38001344DB000B44DA683B691344FB60BA8DFE
:105A480013465B001344DB001A467B6A134419684B
:105A58007A8D13465B001344DB000B441969BA8D39
:105A680013465B001344DB001A467B6A134418682C
:105A78007A8D13465B001344DB0003445A69FB68C4
:105A8800D31ACB1ABB60BA8D13465B001344DB00F4
:105A98001A467B6A134419687A8D13465B001344CF
:105AA800DB000B445B69BA680021184606F0C2FFA8
:105AB800BA8D13465B001344DB001A467B6A134415
:105AC80019687A8D13465B001344DB000B44D868D1
